{
  "contractName": "VotingEscrow",
  "abi": [
    {
      "inputs": [
        {
          "internalType": "string[]",
          "name": "candidateNames",
          "type": "string[]"
        },
        {
          "internalType": "address payable[]",
          "name": "candidateAddresses",
          "type": "address[]"
        },
        {
          "internalType": "uint256",
          "name": "duration",
          "type": "uint256"
        }
      ],
      "stateMutability": "nonpayable",
      "type": "constructor"
    },
    {
      "inputs": [
        {
          "internalType": "uint256",
          "name": "",
          "type": "uint256"
        }
      ],
      "name": "candidates",
      "outputs": [
        {
          "internalType": "address payable",
          "name": "addr",
          "type": "address"
        },
        {
          "internalType": "string",
          "name": "name",
          "type": "string"
        },
        {
          "internalType": "uint256",
          "name": "voteCount",
          "type": "uint256"
        }
      ],
      "stateMutability": "view",
      "type": "function"
    },
    {
      "inputs": [],
      "name": "contractEndTime",
      "outputs": [
        {
          "internalType": "uint256",
          "name": "",
          "type": "uint256"
        }
      ],
      "stateMutability": "view",
      "type": "function"
    },
    {
      "inputs": [],
      "name": "owner",
      "outputs": [
        {
          "internalType": "address",
          "name": "",
          "type": "address"
        }
      ],
      "stateMutability": "view",
      "type": "function"
    },
    {
      "stateMutability": "payable",
      "type": "receive"
    },
    {
      "inputs": [
        {
          "internalType": "string",
          "name": "name",
          "type": "string"
        },
        {
          "internalType": "address payable",
          "name": "addr",
          "type": "address"
        }
      ],
      "name": "addCandidate",
      "outputs": [],
      "stateMutability": "nonpayable",
      "type": "function"
    },
    {
      "inputs": [
        {
          "internalType": "uint256",
          "name": "candidateIndex",
          "type": "uint256"
        }
      ],
      "name": "vote",
      "outputs": [],
      "stateMutability": "nonpayable",
      "type": "function"
    },
    {
      "inputs": [],
      "name": "payout",
      "outputs": [],
      "stateMutability": "nonpayable",
      "type": "function"
    }
  ],
  "bytecode": "0x60806040525f600360146101000a81548160ff0219169083151502179055503480156200002a575f80fd5b5060405162001e7538038062001e758339818101604052810190620000509190620005fa565b815183511462000097576040517f08c379a00000000000000000000000000000000000000000000000000000000081526004016200008e9062000715565b60405180910390fd5b5f5b8351811015620001b3575f6040518060600160405280858481518110620000c557620000c462000735565b5b602002602001015173ffffffffffffffffffffffffffffffffffffffff168152602001868481518110620000fe57620000fd62000735565b5b602002602001015181526020015f815250908060018154018082558091505060019003905f5260205f2090600302015f909190919091505f820151815f015f6101000a81548173ffffffffffffffffffffffffffffffffffffffff021916908373ffffffffffffffffffffffffffffffffffffffff160217905550602082015181600101908162000190919062000990565b506040820151816002015550508080620001aa9062000aa1565b91505062000099565b508042620001c2919062000aed565b6002819055503360035f6101000a81548173ffffffffffffffffffffffffffffffffffffffff021916908373ffffffffffffffffffffffffffffffffffffffff16021790555050505062000b27565b5f604051905090565b5f80fd5b5f80fd5b5f80fd5b5f601f19601f8301169050919050565b7f4e487b71000000000000000000000000000000000000000000000000000000005f52604160045260245ffd5b6200026e8262000226565b810181811067ffffffffffffffff8211171562000290576200028f62000236565b5b80604052505050565b5f620002a462000211565b9050620002b2828262000263565b919050565b5f67ffffffffffffffff821115620002d457620002d362000236565b5b602082029050602081019050919050565b5f80fd5b5f80fd5b5f67ffffffffffffffff8211156200030a576200030962000236565b5b620003158262000226565b9050602081019050919050565b5f5b838110156200034157808201518184015260208101905062000324565b5f8484015250505050565b5f620003626200035c84620002ed565b62000299565b905082815260208101848484011115620003815762000380620002e9565b5b6200038e84828562000322565b509392505050565b5f82601f830112620003ad57620003ac62000222565b5b8151620003bf8482602086016200034c565b91505092915050565b5f620003de620003d884620002b7565b62000299565b90508083825260208201905060208402830185811115620004045762000403620002e5565b5b835b818110156200045257805167ffffffffffffffff8111156200042d576200042c62000222565b5b8086016200043c898262000396565b8552602085019450505060208101905062000406565b5050509392505050565b5f82601f83011262000473576200047262000222565b5b815162000485848260208601620003c8565b91505092915050565b5f67ffffffffffffffff821115620004ab57620004aa62000236565b5b602082029050602081019050919050565b5f73ffffffffffffffffffffffffffffffffffffffff82169050919050565b5f620004e782620004bc565b9050919050565b620004f981620004db565b811462000504575f80fd5b50565b5f815190506200051781620004ee565b92915050565b5f620005336200052d846200048e565b62000299565b90508083825260208201905060208402830185811115620005595762000558620002e5565b5b835b8181101562000586578062000571888262000507565b8452602084019350506020810190506200055b565b5050509392505050565b5f82601f830112620005a757620005a662000222565b5b8151620005b98482602086016200051d565b91505092915050565b5f819050919050565b620005d681620005c2565b8114620005e1575f80fd5b50565b5f81519050620005f481620005cb565b92915050565b5f805f606084860312156200061457620006136200021a565b5b5f84015167ffffffffffffffff8111156200063457620006336200021e565b5b62000642868287016200045c565b935050602084015167ffffffffffffffff8111156200066657620006656200021e565b5b620006748682870162000590565b92505060406200068786828701620005e4565b9150509250925092565b5f82825260208201905092915050565b7f456163682063616e646964617465206d75737420686176652061206e616d65205f8201527f616e6420616e20616464726573732e0000000000000000000000000000000000602082015250565b5f620006fd602f8362000691565b91506200070a82620006a1565b604082019050919050565b5f6020820190508181035f8301526200072e81620006ef565b9050919050565b7f4e487b71000000000000000000000000000000000000000000000000000000005f52603260045260245ffd5b5f81519050919050565b7f4e487b71000000000000000000000000000000000000000000000000000000005f52602260045260245ffd5b5f6002820490506001821680620007b157607f821691505b602082108103620007c757620007c66200076c565b5b50919050565b5f819050815f5260205f209050919050565b5f6020601f8301049050919050565b5f82821b905092915050565b5f600883026200082b7fffffffffffffffffffffffffffffffffffffffffffffffffffffffffffffffff82620007ee565b620008378683620007ee565b95508019841693508086168417925050509392505050565b5f819050919050565b5f62000878620008726200086c84620005c2565b6200084f565b620005c2565b9050919050565b5f819050919050565b620008938362000858565b620008ab620008a2826200087f565b848454620007fa565b825550505050565b5f90565b620008c1620008b3565b620008ce81848462000888565b505050565b5b81811015620008f557620008e95f82620008b7565b600181019050620008d4565b5050565b601f82111562000944576200090e81620007cd565b6200091984620007df565b8101602085101562000929578190505b620009416200093885620007df565b830182620008d3565b50505b505050565b5f82821c905092915050565b5f620009665f198460080262000949565b1980831691505092915050565b5f62000980838362000955565b9150826002028217905092915050565b6200099b8262000762565b67ffffffffffffffff811115620009b757620009b662000236565b5b620009c3825462000799565b620009d0828285620008f9565b5f60209050601f83116001811462000a06575f8415620009f1578287015190505b620009fd858262000973565b86555062000a6c565b601f19841662000a1686620007cd565b5f5b8281101562000a3f5784890151825560018201915060208501945060208101905062000a18565b8683101562000a5f578489015162000a5b601f89168262000955565b8355505b6001600288020188555050505b505050505050565b7f4e487b71000000000000000000000000000000000000000000000000000000005f52601160045260245ffd5b5f62000aad82620005c2565b91507fffffffffffffffffffffffffffffffffffffffffffffffffffffffffffffffff820362000ae25762000ae162000a74565b5b600182019050919050565b5f62000af982620005c2565b915062000b0683620005c2565b925082820190508082111562000b215762000b2062000a74565b5b92915050565b6113408062000b355f395ff3fe608060405260043610610058575f3560e01c80630121b93f146100635780633477ee2e1461008b5780634a2a84c5146100c957806363bd1d4a146100f15780638da5cb5b14610107578063b8534ed1146101315761005f565b3661005f57005b5f80fd5b34801561006e575f80fd5b5061008960048036038101906100849190610955565b61015b565b005b348015610096575f80fd5b506100b160048036038101906100ac9190610955565b6102ba565b6040516100c093929190610a58565b60405180910390f35b3480156100d4575f80fd5b506100ef60048036038101906100ea9190610bea565b610393565b005b3480156100fc575f80fd5b506101056104e4565b005b348015610112575f80fd5b5061011b6108e6565b6040516101289190610c64565b60405180910390f35b34801561013c575f80fd5b5061014561090b565b6040516101529190610c7d565b60405180910390f35b6002544211156101a0576040517f08c379a000000000000000000000000000000000000000000000000000000000815260040161019790610ce0565b60405180910390fd5b60015f3373ffffffffffffffffffffffffffffffffffffffff1673ffffffffffffffffffffffffffffffffffffffff1681526020019081526020015f205f9054906101000a900460ff161561022a576040517f08c379a000000000000000000000000000000000000000000000000000000000815260040161022190610d48565b60405180910390fd5b60015f828154811061023f5761023e610d66565b5b905f5260205f2090600302016002015f82825461025c9190610dc0565b925050819055506001805f3373ffffffffffffffffffffffffffffffffffffffff1673ffffffffffffffffffffffffffffffffffffffff1681526020019081526020015f205f6101000a81548160ff02191690831515021790555050565b5f81815481106102c8575f80fd5b905f5260205f2090600302015f91509050805f015f9054906101000a900473ffffffffffffffffffffffffffffffffffffffff169080600101805461030c90610e20565b80601f016020809104026020016040519081016040528092919081815260200182805461033890610e20565b80156103835780601f1061035a57610100808354040283529160200191610383565b820191905f5260205f20905b81548152906001019060200180831161036657829003601f168201915b5050505050908060020154905083565b60035f9054906101000a900473ffffffffffffffffffffffffffffffffffffffff1673ffffffffffffffffffffffffffffffffffffffff163373ffffffffffffffffffffffffffffffffffffffff1614610422576040517f08c379a000000000000000000000000000000000000000000000000000000000815260040161041990610ec0565b60405180910390fd5b5f60405180606001604052808373ffffffffffffffffffffffffffffffffffffffff1681526020018481526020015f815250908060018154018082558091505060019003905f5260205f2090600302015f909190919091505f820151815f015f6101000a81548173ffffffffffffffffffffffffffffffffffffffff021916908373ffffffffffffffffffffffffffffffffffffffff16021790555060208201518160010190816104d3919061107b565b506040820151816002015550505050565b600360149054906101000a900460ff1615610534576040517f08c379a000000000000000000000000000000000000000000000000000000000815260040161052b90611194565b60405180910390fd5b6001600360146101000a81548160ff0219169083151502179055506002544211610593576040517f08c379a000000000000000000000000000000000000000000000000000000000815260040161058a906111fc565b60405180910390fd5b5f805f815481106105a7576105a6610d66565b5b905f5260205f2090600302016040518060600160405290815f82015f9054906101000a900473ffffffffffffffffffffffffffffffffffffffff1673ffffffffffffffffffffffffffffffffffffffff1673ffffffffffffffffffffffffffffffffffffffff16815260200160018201805461062290610e20565b80601f016020809104026020016040519081016040528092919081815260200182805461064e90610e20565b80156106995780601f1061067057610100808354040283529160200191610699565b820191905f5260205f20905b81548152906001019060200180831161067c57829003601f168201915b5050505050815260200160028201548152505090505f600190505b5f8054905081101561081c5781604001515f82815481106106d8576106d7610d66565b5b905f5260205f209060030201600201541115610809575f818154811061070157610700610d66565b5b905f5260205f2090600302016040518060600160405290815f82015f9054906101000a900473ffffffffffffffffffffffffffffffffffffffff1673ffffffffffffffffffffffffffffffffffffffff1673ffffffffffffffffffffffffffffffffffffffff16815260200160018201805461077c90610e20565b80601f01602080910402602001604051908101604052809291908181526020018280546107a890610e20565b80156107f35780601f106107ca576101008083540402835291602001916107f3565b820191905f5260205f20905b8154815290600101906020018083116107d657829003601f168201915b5050505050815260200160028201548152505091505b80806108149061121a565b9150506106b4565b505f815f015173ffffffffffffffffffffffffffffffffffffffff16476040516108459061128e565b5f6040518083038185875af1925050503d805f811461087f576040519150601f19603f3d011682016040523d82523d5f602084013e610884565b606091505b50509050806108c8576040517f08c379a00000000000000000000000000000000000000000000000000000000081526004016108bf906112ec565b60405180910390fd5b50505f600360146101000a81548160ff021916908315150217905550565b60035f9054906101000a900473ffffffffffffffffffffffffffffffffffffffff1681565b60025481565b5f604051905090565b5f80fd5b5f80fd5b5f819050919050565b61093481610922565b811461093e575f80fd5b50565b5f8135905061094f8161092b565b92915050565b5f6020828403121561096a5761096961091a565b5b5f61097784828501610941565b91505092915050565b5f73ffffffffffffffffffffffffffffffffffffffff82169050919050565b5f6109a982610980565b9050919050565b6109b98161099f565b82525050565b5f81519050919050565b5f82825260208201905092915050565b5f5b838110156109f65780820151818401526020810190506109db565b5f8484015250505050565b5f601f19601f8301169050919050565b5f610a1b826109bf565b610a2581856109c9565b9350610a358185602086016109d9565b610a3e81610a01565b840191505092915050565b610a5281610922565b82525050565b5f606082019050610a6b5f8301866109b0565b8181036020830152610a7d8185610a11565b9050610a8c6040830184610a49565b949350505050565b5f80fd5b5f80fd5b7f4e487b71000000000000000000000000000000000000000000000000000000005f52604160045260245ffd5b610ad282610a01565b810181811067ffffffffffffffff82111715610af157610af0610a9c565b5b80604052505050565b5f610b03610911565b9050610b0f8282610ac9565b919050565b5f67ffffffffffffffff821115610b2e57610b2d610a9c565b5b610b3782610a01565b9050602081019050919050565b828183375f83830152505050565b5f610b64610b5f84610b14565b610afa565b905082815260208101848484011115610b8057610b7f610a98565b5b610b8b848285610b44565b509392505050565b5f82601f830112610ba757610ba6610a94565b5b8135610bb7848260208601610b52565b91505092915050565b610bc98161099f565b8114610bd3575f80fd5b50565b5f81359050610be481610bc0565b92915050565b5f8060408385031215610c0057610bff61091a565b5b5f83013567ffffffffffffffff811115610c1d57610c1c61091e565b5b610c2985828601610b93565b9250506020610c3a85828601610bd6565b9150509250929050565b5f610c4e82610980565b9050919050565b610c5e81610c44565b82525050565b5f602082019050610c775f830184610c55565b92915050565b5f602082019050610c905f830184610a49565b92915050565b7f566f74696e6720706572696f642068617320656e6465642e00000000000000005f82015250565b5f610cca6018836109c9565b9150610cd582610c96565b602082019050919050565b5f6020820190508181035f830152610cf781610cbe565b9050919050565b7f596f75206861766520616c726561647920766f7465642e0000000000000000005f82015250565b5f610d326017836109c9565b9150610d3d82610cfe565b602082019050919050565b5f6020820190508181035f830152610d5f81610d26565b9050919050565b7f4e487b71000000000000000000000000000000000000000000000000000000005f52603260045260245ffd5b7f4e487b71000000000000000000000000000000000000000000000000000000005f52601160045260245ffd5b5f610dca82610922565b9150610dd583610922565b9250828201905080821115610ded57610dec610d93565b5b92915050565b7f4e487b71000000000000000000000000000000000000000000000000000000005f52602260045260245ffd5b5f6002820490506001821680610e3757607f821691505b602082108103610e4a57610e49610df3565b5b50919050565b7f4f6e6c792074686520636f6e7472616374206f776e65722063616e20706572665f8201527f6f726d2074686973206f7065726174696f6e2e00000000000000000000000000602082015250565b5f610eaa6033836109c9565b9150610eb582610e50565b604082019050919050565b5f6020820190508181035f830152610ed781610e9e565b9050919050565b5f819050815f5260205f209050919050565b5f6020601f8301049050919050565b5f82821b905092915050565b5f60088302610f3a7fffffffffffffffffffffffffffffffffffffffffffffffffffffffffffffffff82610eff565b610f448683610eff565b95508019841693508086168417925050509392505050565b5f819050919050565b5f610f7f610f7a610f7584610922565b610f5c565b610922565b9050919050565b5f819050919050565b610f9883610f65565b610fac610fa482610f86565b848454610f0b565b825550505050565b5f90565b610fc0610fb4565b610fcb818484610f8f565b505050565b5b81811015610fee57610fe35f82610fb8565b600181019050610fd1565b5050565b601f8211156110335761100481610ede565b61100d84610ef0565b8101602085101561101c578190505b61103061102885610ef0565b830182610fd0565b50505b505050565b5f82821c905092915050565b5f6110535f1984600802611038565b1980831691505092915050565b5f61106b8383611044565b9150826002028217905092915050565b611084826109bf565b67ffffffffffffffff81111561109d5761109c610a9c565b5b6110a78254610e20565b6110b2828285610ff2565b5f60209050601f8311600181146110e3575f84156110d1578287015190505b6110db8582611060565b865550611142565b601f1984166110f186610ede565b5f5b82811015611118578489015182556001820191506020850194506020810190506110f3565b868310156111355784890151611131601f891682611044565b8355505b6001600288020188555050505b505050505050565b7f5265656e7472616e742063616c6c2e00000000000000000000000000000000005f82015250565b5f61117e600f836109c9565b91506111898261114a565b602082019050919050565b5f6020820190508181035f8301526111ab81611172565b9050919050565b7f566f74696e6720706572696f64206973206e6f7420796574206f7665722e00005f82015250565b5f6111e6601e836109c9565b91506111f1826111b2565b602082019050919050565b5f6020820190508181035f830152611213816111da565b9050919050565b5f61122482610922565b91507fffffffffffffffffffffffffffffffffffffffffffffffffffffffffffffffff820361125657611255610d93565b5b600182019050919050565b5f81905092915050565b50565b5f6112795f83611261565b91506112848261126b565b5f82019050919050565b5f6112988261126e565b9150819050919050565b7f4661696c656420746f2073656e642045746865720000000000000000000000005f82015250565b5f6112d66014836109c9565b91506112e1826112a2565b602082019050919050565b5f6020820190508181035f830152611303816112ca565b905091905056fea26469706673582212206ba50da0f04dd808b8a494dcc5f910518958bc010beaad47f85dbf1bb94fee4064736f6c63430008140033",
  "immutableReferences": {},
  "source": "// SPDX-License-Identifier: MIT\npragma solidity ^0.8.20;\n\ncontract VotingEscrow {\n    struct Candidate {\n        address payable addr;\n        string name;\n        uint voteCount;\n    }\n    \n    Candidate[] public candidates;\n    mapping(address => bool) hasVoted;\n    uint public contractEndTime;\n    address public owner;\n    bool private locked = false;\n\n    modifier onlyOwner() {\n        require(msg.sender == owner, \"Only the contract owner can perform this operation.\");\n        _;\n    }\n\n    modifier noReentrancy() {\n        require(!locked, \"Reentrant call.\");\n        locked = true;\n        _;\n        locked = false;\n    }\n\n    constructor(string[] memory candidateNames, address payable[] memory candidateAddresses, uint duration) {\n        require(candidateNames.length == candidateAddresses.length, \"Each candidate must have a name and an address.\");\n        \n        for(uint i = 0; i < candidateNames.length; i++){\n            candidates.push(Candidate({\n                addr: candidateAddresses[i],\n                name: candidateNames[i],\n                voteCount: 0\n            }));\n        }\n        \n        contractEndTime = block.timestamp + duration;\n        owner = msg.sender;\n    }\n    \n    function addCandidate(string memory name, address payable addr) public onlyOwner {\n        candidates.push(Candidate({\n            addr: addr,\n            name: name,\n            voteCount: 0\n        }));\n    }\n    \n    function vote(uint candidateIndex) external {\n        require(block.timestamp <= contractEndTime, \"Voting period has ended.\");\n        require(!hasVoted[msg.sender], \"You have already voted.\");\n        \n        candidates[candidateIndex].voteCount += 1;\n        hasVoted[msg.sender] = true;\n    }\n    \n    function payout() external noReentrancy {\n        require(block.timestamp > contractEndTime, \"Voting period is not yet over.\");\n        \n        Candidate memory highestCandidate = candidates[0];\n        for(uint i = 1; i < candidates.length; i++){\n            if(candidates[i].voteCount > highestCandidate.voteCount){\n                highestCandidate = candidates[i];\n            }\n        }\n        \n        (bool sent, ) = payable(highestCandidate.addr).call{value: address(this).balance}(\"\");\n        require(sent, \"Failed to send Ether\");\n    }\n    \n    receive() external payable {}\n}\n",
  "sourcePath": "/Users/luiscarchi/Documents/Dev/EthGiveaway/contracts/Election.sol",
  "compiler": {
    "name": "solc",
    "version": "0.8.20+commit.a1b79de6.Emscripten.clang"
  },
  "schemaVersion": "3.4.14",
  "updatedAt": "2023-07-03T05:56:06.297Z",
  "devdoc": {
    "kind": "dev",
    "methods": {},
    "version": 1
  },
  "userdoc": {
    "kind": "user",
    "methods": {},
    "version": 1
  }
}